{
  "contractName": "Cerebro",
  "abi": [
    {
      "inputs": [
        {
          "internalType": "contract Bgc",
          "name": "_token",
          "type": "address"
        }
      ],
      "stateMutability": "nonpayable",
      "type": "constructor"
    },
    {
      "anonymous": false,
      "inputs": [
        {
          "indexed": false,
          "internalType": "address payable",
          "name": "staker",
          "type": "address"
        },
        {
          "indexed": false,
          "internalType": "uint256",
          "name": "amount",
          "type": "uint256"
        }
      ],
      "name": "Deposited",
      "type": "event"
    },
    {
      "inputs": [
        {
          "internalType": "address",
          "name": "",
          "type": "address"
        }
      ],
      "name": "depositEth",
      "outputs": [
        {
          "internalType": "uint256",
          "name": "",
          "type": "uint256"
        }
      ],
      "stateMutability": "view",
      "type": "function"
    },
    {
      "inputs": [
        {
          "internalType": "address",
          "name": "",
          "type": "address"
        }
      ],
      "name": "depositState",
      "outputs": [
        {
          "internalType": "bool",
          "name": "",
          "type": "bool"
        }
      ],
      "stateMutability": "view",
      "type": "function"
    },
    {
      "inputs": [
        {
          "internalType": "address",
          "name": "",
          "type": "address"
        }
      ],
      "name": "depositTime",
      "outputs": [
        {
          "internalType": "uint256",
          "name": "",
          "type": "uint256"
        }
      ],
      "stateMutability": "view",
      "type": "function"
    },
    {
      "inputs": [],
      "name": "interest",
      "outputs": [
        {
          "internalType": "uint256",
          "name": "",
          "type": "uint256"
        }
      ],
      "stateMutability": "view",
      "type": "function"
    },
    {
      "inputs": [],
      "name": "deposit",
      "outputs": [
        {
          "internalType": "bool",
          "name": "",
          "type": "bool"
        }
      ],
      "stateMutability": "payable",
      "type": "function"
    },
    {
      "inputs": [],
      "name": "withdraw",
      "outputs": [
        {
          "internalType": "bool",
          "name": "",
          "type": "bool"
        }
      ],
      "stateMutability": "payable",
      "type": "function"
    }
  ],
  "bytecode": "0x608060405234801561001057600080fd5b50604051610b19380380610b198339818101604052810190610032919061008e565b80600460006101000a81548173ffffffffffffffffffffffffffffffffffffffff021916908373ffffffffffffffffffffffffffffffffffffffff16021790555050610112565b600081519050610088816100fb565b92915050565b6000602082840312156100a057600080fd5b60006100ae84828501610079565b91505092915050565b60006100c2826100db565b9050919050565b60006100d4826100b7565b9050919050565b600073ffffffffffffffffffffffffffffffffffffffff82169050919050565b610104816100c9565b811461010f57600080fd5b50565b6109f8806101216000396000f3fe6080604052600436106100555760003560e01c80633ccfd60b1461005a57806346c648731461007857806348c10960146100b5578063ad9d4ba3146100f2578063c392f7661461012f578063d0e30db01461015a575b600080fd5b610062610178565b60405161006f9190610789565b60405180910390f35b34801561008457600080fd5b5061009f600480360381019061009a91906106ca565b6104d7565b6040516100ac91906107c4565b60405180910390f35b3480156100c157600080fd5b506100dc60048036038101906100d791906106ca565b6104ef565b6040516100e99190610789565b60405180910390f35b3480156100fe57600080fd5b50610119600480360381019061011491906106ca565b61050f565b60405161012691906107c4565b60405180910390f35b34801561013b57600080fd5b50610144610527565b60405161015191906107c4565b60405180910390f35b61016261052d565b60405161016f9190610789565b60405180910390f35b600060011515600360003373ffffffffffffffffffffffffffffffffffffffff1673ffffffffffffffffffffffffffffffffffffffff16815260200190815260200160002060009054906101000a900460ff161515146101d757600080fd5b3373ffffffffffffffffffffffffffffffffffffffff166108fc600160003373ffffffffffffffffffffffffffffffffffffffff1673ffffffffffffffffffffffffffffffffffffffff168152602001908152602001600020549081150290604051600060405180830381858888f1935050505015801561025c573d6000803e3d6000fd5b50620151806003600160003373ffffffffffffffffffffffffffffffffffffffff1673ffffffffffffffffffffffffffffffffffffffff16815260200190815260200160002054600260003373ffffffffffffffffffffffffffffffffffffffff1673ffffffffffffffffffffffffffffffffffffffff16815260200190815260200160002054426102ee91906108d1565b6102f89190610877565b6103029190610877565b61030c9190610846565b600081905550600460009054906101000a900473ffffffffffffffffffffffffffffffffffffffff1673ffffffffffffffffffffffffffffffffffffffff166340c10f19336000546040518363ffffffff1660e01b8152600401610371929190610760565b600060405180830381600087803b15801561038b57600080fd5b505af115801561039f573d6000803e3d6000fd5b505050506000600360003373ffffffffffffffffffffffffffffffffffffffff1673ffffffffffffffffffffffffffffffffffffffff16815260200190815260200160002060006101000a81548160ff0219169083151502179055506000600160003373ffffffffffffffffffffffffffffffffffffffff1673ffffffffffffffffffffffffffffffffffffffff168152602001908152602001600020819055506000600260003373ffffffffffffffffffffffffffffffffffffffff1673ffffffffffffffffffffffffffffffffffffffff16815260200190815260200160002081905550600360003373ffffffffffffffffffffffffffffffffffffffff1673ffffffffffffffffffffffffffffffffffffffff16815260200190815260200160002060009054906101000a900460ff16905090565b60026020528060005260406000206000915090505481565b60036020528060005260406000206000915054906101000a900460ff1681565b60016020528060005260406000206000915090505481565b60005481565b6000803411610571576040517f08c379a0000000000000000000000000000000000000000000000000000000008152600401610568906107a4565b60405180910390fd5b34600160003373ffffffffffffffffffffffffffffffffffffffff1673ffffffffffffffffffffffffffffffffffffffff16815260200190815260200160002060008282546105c091906107f0565b9250508190555042600260003373ffffffffffffffffffffffffffffffffffffffff1673ffffffffffffffffffffffffffffffffffffffff168152602001908152602001600020819055506001600360003373ffffffffffffffffffffffffffffffffffffffff1673ffffffffffffffffffffffffffffffffffffffff16815260200190815260200160002060006101000a81548160ff021916908315150217905550600360003373ffffffffffffffffffffffffffffffffffffffff1673ffffffffffffffffffffffffffffffffffffffff16815260200190815260200160002060009054906101000a900460ff16905090565b6000813590506106c4816109ab565b92915050565b6000602082840312156106dc57600080fd5b60006106ea848285016106b5565b91505092915050565b6106fc81610905565b82525050565b61070b81610917565b82525050565b600061071e6017836107df565b91507f44616c652072617461206d616e6461206c6f73206574680000000000000000006000830152602082019050919050565b61075a81610943565b82525050565b600060408201905061077560008301856106f3565b6107826020830184610751565b9392505050565b600060208201905061079e6000830184610702565b92915050565b600060208201905081810360008301526107bd81610711565b9050919050565b60006020820190506107d96000830184610751565b92915050565b600082825260208201905092915050565b60006107fb82610943565b915061080683610943565b9250827fffffffffffffffffffffffffffffffffffffffffffffffffffffffffffffffff0382111561083b5761083a61094d565b5b828201905092915050565b600061085182610943565b915061085c83610943565b92508261086c5761086b61097c565b5b828204905092915050565b600061088282610943565b915061088d83610943565b9250817fffffffffffffffffffffffffffffffffffffffffffffffffffffffffffffffff04831182151516156108c6576108c561094d565b5b828202905092915050565b60006108dc82610943565b91506108e783610943565b9250828210156108fa576108f961094d565b5b828203905092915050565b600061091082610923565b9050919050565b60008115159050919050565b600073ffffffffffffffffffffffffffffffffffffffff82169050919050565b6000819050919050565b7f4e487b7100000000000000000000000000000000000000000000000000000000600052601160045260246000fd5b7f4e487b7100000000000000000000000000000000000000000000000000000000600052601260045260246000fd5b6109b481610905565b81146109bf57600080fd5b5056fea2646970667358221220475b70b71fba3250743a23de6a72b9681ab1f18222269dc8b8b312901e95791964736f6c63430008000033",
  "immutableReferences": {},
  "source": "pragma solidity ^0.8.0;\r\n\r\nimport './Bgc.sol';\r\n\r\ncontract Cerebro {\r\n    \r\n    uint public interest;\r\n    mapping(address => uint) public depositEth;\r\n    mapping(address => uint) public depositTime;\r\n    mapping(address => bool) public depositState;\r\n    \r\n    Bgc private bgc;\r\n    \r\n    event Deposited(\r\n        address payable staker,\r\n        uint amount\r\n        );\r\n    \r\n    constructor(Bgc _token) public {\r\n        bgc = _token;\r\n    }\r\n    \r\n    function deposit() payable public returns(bool) {\r\n        require(msg.value > 0, 'Dale rata manda los eth');\r\n        depositEth[msg.sender] += msg.value;\r\n        depositTime[msg.sender] = block.timestamp;\r\n        depositState[msg.sender] = true;\r\n        return depositState[msg.sender];\r\n    }\r\n    \r\n    \r\n    function withdraw() public payable returns(bool) {\r\n        require(depositState[msg.sender] == true);\r\n        payable(msg.sender).transfer(depositEth[msg.sender]);\r\n        interest = (block.timestamp - depositTime[msg.sender])  * depositEth[msg.sender] * 3 / 86400;\r\n        bgc.mint(msg.sender, interest);\r\n        depositState[msg.sender] = false;\r\n        depositEth[msg.sender] = 0;\r\n        depositTime[msg.sender] = 0;\r\n        return depositState[msg.sender];\r\n    }\r\n\r\n}",
  "sourcePath": "C:/Users/guill/dapps/staker_bcg/src/contracts/Cerebro.sol",
  "compiler": {
    "name": "solc",
    "version": "0.8.0+commit.c7dfd78e.Emscripten.clang"
  },
  "schemaVersion": "3.4.1",
  "updatedAt": "2021-06-10T01:21:23.445Z",
  "devdoc": {
    "kind": "dev",
    "methods": {},
    "version": 1
  },
  "userdoc": {
    "kind": "user",
    "methods": {},
    "version": 1
  }
}